:060000000A128A11122809
:10000800FE00030E83120313A7000408A8000A08C1
:10001800A9007F08AA000A128A11172A0A128A114F
:10002800152883120313B901BA01BB01BC01BD0134
:10003800BE01BF01C00183010A128A11CE2A92288B
:100048000130F0000030F1000A128A1135230A123B
:100058008A1114300A128A1193230A128A11C030A5
:10006800F0000030F1000A128A1135230A128A11B1
:10007800831203133E08FC003D08FB000A128A1194
:10008800A82008000130F0000030F1000A128A119F
:1000980035230A128A1111300A128A1193230A127F
:1000A8008A11C030F0000030F1000A128A1135239D
:1000B8000A128A11831203133C08FC003B08FB0058
:1000C8000A128A11A82008000130F0000030F1005F
:1000D8000A128A1135230A128A110E300A128A115D
:1000E80093230A128A11C030F0000030F1000A127E
:1000F8008A1135230A128A11831203133A08FC0065
:100108003908FB000A128A11A82008000130F00003
:100118000030F1000A128A113523080083120313F4
:100128004008003A03199928A7283F08013A0319FB
:100138002428033A03194628013A03196828073A7C
:1001480003198A28A728080083120313A201A30110
:100158007B087C040319EE28831203132308F1009B
:100168002208F0000A30F2000030F3000A128A1167
:10017800BF230A128A11700883120313A0007108A2
:10018800A1000A30F0000030F1007C08F3007B0881
:10019800F2000A128A11CC210A128A1170088312FD
:1001A80003132007A20071080318710A2107A3008E
:1001B8000A30F0000030F1007C08F3007B08F20000
:1001C8000A128A1123210A128A117108FC00700888
:1001D800FB00AC28831203132308FC002208FB0051
:1001E8007B087C04031908000A30F0000030F10095
:1001F8007C08F3007B08F2000A128A11CC210A124B
:100208008A117008303EF70071080318013E003E5D
:10021800F8000A128A1102230A128A110A30F00021
:100228000030F1007C08F3007B08F2000A128A1102
:1002380023210A128A117108FC007008F328F601BC
:10024800F11F2D29F009F109F00A0319F10AF60145
:10025800F60AF31F3829F209F309F20A0319F30A17
:100268000130F4007408F606F701F801700871040B
:1002780003196F29F501F50AF11B4E290130031006
:10028800F00DF10DFF3E031D43290130F400740801
:10029800F507402901300310F70DF80DFF3E031D47
:1002A8004F2971087302031D5B2970087202031C31
:1002B80064297008F2027108031CF303F30277142F
:1002C80001300310F10CF00CFF3E031D65290130CD
:1002D800F502031D4E29760803197729F709F8094D
:1002E800F70A0319F80A7808F1007708F0000800FF
:1002F800023083120313B3000430B200B930B100E6
:10030800B10B8429B20B8429B30B84298B29333090
:1003180083120313AD000030AE000A128A1198222E
:100328000A128A11323083120313AD000030AE0076
:100338000A128A1198220A128A112830831203138A
:10034800AD000030AE000A128A1198220A128A11F2
:10035800063083120313AD000030AE000A128A1172
:1003680098220A128A110E3083120313AD0000304E
:10037800AE000A128A1198220A128A1101308312D9
:100388000313AD000030AE000A128A11982208004B
:10039800F601F31FD629F209F309F20A0319F30A41
:1003A800F601F60AF11FDD29F009F109F00A03192F
:1003B800F10A7008710403190A2AF501F50AF11BFC
:1003C800F12901300310F00DF10DFF3E031DE62960
:1003D8000130F4007408F507E32971087302031D5E
:1003E800F72970087202031CFF297008F2027108CD
:1003F800031CF303F30201300310F10CF00CFF3E71
:10040800031D002A0130F502031DF129760803199E
:10041800122AF209F309F20A0319F30A7308F10020
:100428007208F000080001300B1E00398B1C0039DF
:1004380000380319542AEF30A40024088B058B10C8
:100448000130BF070318C00A0030C007AB01AC0178
:100458002C08803AFF0080307F02031D352A0330C4
:100468002B0203184E2A0B3083120313A6002630E2
:10047800A5005D30A400A40B3F2AA50B3F2AA60BBC
:100488003F2A013083120313AB070318AC0A00306C
:10049800AC072C2A0B160A128A1123200A128A1179
:1004A800831203132A08FF0029088A0028088400F9
:1004B800270E8300FE0E7E0E0900831203132D08FB
:1004C800F039043888008815683083120313B000A7
:1004D800E330AF00AF0B6E2AB00B6E2A732AF730E9
:1004E80083120313AF002F0888052D08AF000330CF
:1004F8000310AF0DFF3E031D7C2A03102F0D043897
:1005080088008815683083120313B000E330AF0009
:10051800AF0B8C2AB00B8C2A912AF7308312031365
:10052800AF002F0888050800831203132D08F0393F
:1005380088008815683083120313B000E330AF00D9
:10054800AF0BA42AB00BA42AA92AF73083120313ED
:10055800AF002F0888052D08AF0003300310AF0D3A
:10056800FF3E031DB22A03102F0DF03988008815AD
:10057800683083120313B000E330AF00AF0BC22A18
:10058800B00BC22AC72AF73083120313AF002F0813
:10059800880508000A128A11FC230A128A110A1215
:1005A8008A117C210A128A1101300A128A116723E2
:1005B8000A128A110B3083120313B8002630B700D1
:1005C8005D30B600B60BE62AB70BE62AB80BE62A6A
:1005D800013083120313AD000030AE000A128A11F5
:1005E80098220A128A11343083120313B700F130AB
:1005F800B600B60BFD2AB70BFD2AF72A7708F039A3
:10060800043883120313880088156830FA00E43030
:10061800F900F90B0D2BFA0B0D2B0000F730F90040
:1006280079088312031388057708F900033003104B
:10063800F90DFF3E031D1B2B0310790D04388800AC
:1006480088156830FA00E430F900F90B292BFA0B09
:10065800292B0000F730F900790883120313880565
:1006680008007008F0398312031388008815683071
:10067800F300E430F200F20B3F2BF30B3F2B0000AA
:10068800F730F20072088312031388057008F2002D
:1006980003300310F20DFF3E031D4D2B0310720DA6
:1006A800F039880088156830F300E430F200F20B66
:1006B8005B2BF30B5B2B0000F730F2007208831200
:1006C80003138805080083120313B500B301B401AE
:1006D8003308350784000A128A11E0230A128A11A6
:1006E800003A031908003308350784000A128A11F2
:1006F800E0230A128A11B100B2013108AD003208B4
:10070800AE000A128A1161220A128A11013083127C
:100718000313B3070318B40A0030B4076C2B831211
:100728000313A000A101A2012108200784000A12D6
:100738008A11E0230A128A11003A031908002108D5
:10074800200784000A128A11E0230A128A11FB008A
:10075800FC017B08F7007C08F8000A128A110223C2
:100768000A128A11013083120313A1070318A20A7F
:100778000030A207982BF401F501701CC92B7208F0
:10078800F4070318F50A7308F50701300310F20D92
:10079800F30DFF3E031DCA2B01300310F10CF00CC2
:1007A800FF3E031DD12B70087104031DC12B750872
:1007B800F1007408F000080003308A000408840A75
:1007C800820700346B34723469347A3420345134FB
:1007D8007534613464342034543478340034443407
:1007E8003D34003449343D34003450343D34003411
:1007F800831603138801831203138801FC30AD00AC
:100808002D088316031386050117903083120313EE
:08081800AD002D088B0408005F
:00000001FF
